:100000000C94E2000C940A010C940A010C940A016D
:100010000C940A010C940A010C940A010C940A0134
:100020000C940A010C940A010C940A010C940A0124
:100030000C940A010C940A010C940A010C940A0114
:100040000C9488020C940A010C94F8020C94D202CD
:100050000C940A010C940A010C940A010C940A01F4
:100060000C940A010C940A010000000024002700EF
:100070002A0000000000250028002B0000000008D6
:10008000000201000003040700000000000000005F
:10009000005EBCE2613FDD83C29C7E20A3FD1F4168
:1000A0009DC3217FFCA2401E5F01E3BD3E6082DC58
:1000B000237D9FC1421CFEA0E1BF5D0380DE3C6248
:1000C000BEE0025CDF81633D7C22C09E1D43A1FF38
:1000D0004618FAA427799BC584DA3866E5BB590728
:1000E000DB856739BAE406581947A5FB7826C49A18
:1000F000653BD987045AB8E6A7F91B45C6987A2408
:10010000F8A6441A99C7257B3A6486D85B05E7B9F7
:100110008CD2306EEDB3510F4E10F2AC2F7193CDE7
:10012000114FADF3702ECC92D38D6F31B2EC0E50D7
:10013000AFF1134DCE90722C6D33D18F0C52B0EEC7
:10014000326C8ED0530DEFB1F0AE4C1291CF2D73B7
:10015000CA947628ABF517490856B4EA6937D58BA7
:100160005709EBB536688AD495CB2977F4AA481697
:10017000E9B7550B88D6346A2B7597C94A14F6A887
:10018000742AC896154BA9F7B6E80A54D7896B3577
:1001900000000000230026002900040404040404D5
:1001A0000404020202020202030303030303010226
:1001B00004081020408001020408102001020408F5
:1001C0001020630A11241FBECFEFD8E0DEBFCDBFE1
:1001D00011E0A0E0B1E0E0E6FAE102C005900D9286
:1001E000AA37B107D9F722E0AAE7B1E001C01D9212
:1001F000AD35B207E1F710E0C2EED0E004C02197C0
:10020000FE010E94590BC13ED107C9F70E943E076B
:100210000C942E0D0C940000CF92DF92EF92FF927F
:100220000F931F93CF93DF936C017A018B01C0E092
:10023000D0E0CE15DF0589F0D8016D918D01D60192
:10024000ED91FC910190F081E02DC6010995892B7B
:1002500011F47E0102C02196ECCFC701DF91CF914E
:100260001F910F91FF90EF90DF90CF900895FC01C8
:10027000918D828D981761F0828DDF01A80FB11DDD
:100280005D968C91928D9F5F9F73928F90E0089501
:100290008FEF9FEF0895FC01918D828D981731F0BB
:1002A000828DE80FF11D858D90E008958FEF9FEF0F
:1002B0000895FC01918D228D892F90E0805C9F4FE5
:1002C000821B91098F739927089587E891E00E9416
:1002D000590121E0892B09F420E0822F0895FC01C7
:1002E000848DDF01A80FB11DA35ABF4F2C91848DBF
:1002F00090E001968F739927848FA689B7892C93F4
:10030000A089B1898C9180648C93938D848D98138E
:1003100006C00288F389E02D80818F7D8083089557
:10032000EF92FF920F931F93CF93DF93EC0181E045
:10033000888F9B8D8C8D981305C0E889F989808101
:1003400085FD24C0F62E0B8D10E00F5F1F4F0F733D
:100350001127E02E8C8DE8120CC00FB607FCFACFE7
:10036000E889F989808185FFF5CFCE010E946F0170
:10037000F1CF8B8DFE01E80FF11DE35AFF4FF082A4
:100380000B8FEA89FB898081806207C0EE89FF8933
:100390006083E889F98980818064808381E090E0CE
:1003A000DF91CF911F910F91FF90EF900895CF9320
:1003B000DF93EC01888D8823C9F0EA89FB8980816D
:1003C00085FD05C0A889B9898C9186FD0FC00FB63F
:1003D00007FCF5CF808185FFF2CFA889B9898C9180
:1003E00085FFEDCFCE010E946F01E7CFDF91CF9166
:1003F000089580E090E0892B29F00E946501811129
:100400000C94000008950E94290D6115710579F082
:10041000FB0101900020E9F73197AF01461B570B14
:10042000DC01ED91FC910280F381E02D099480E0E4
:1004300090E008954F925F926F927F92EF92FF92B9
:100440000F931F93CF93DF93CDB7DEB7A1970FB66E
:10045000F894DEBF0FBECDBF7C01FA01CB0119A21B
:10046000223008F42AE08E010F5D1F4F422E512CDE
:10047000612C712CBF01A30192010E94230BF90191
:10048000CA01015011096A3014F4605D01C0695C51
:10049000D8016C93232B242B252B61F7B801C701BE
:1004A0000E940502A1960FB6F894DEBF0FBECDBF25
:1004B000DF91CF911F910F91FF90EF907F906F9000
:1004C0005F904F9008953FB7F89480918301909189
:1004D0008401A0918501B091860126B5A89B05C035
:1004E0002F3F19F00196A11DB11D3FBFBA2FA92FB3
:1004F000982F8827820F911DA11DB11DBC01CD0130
:1005000042E0660F771F881F991F4A95D1F708951B
:100510001F920F920FB60F9211242F933F938F9338
:100520009F93AF93BF9380917F0190918001A091A1
:100530008101B091820130917E0123E0230F2D379C
:1005400020F40196A11DB11D05C026E8230F0296D7
:10055000A11DB11D20937E0180937F0190938001A6
:10056000A0938101B09382018091830190918401D5
:10057000A0918501B09186010196A11DB11D8093C6
:10058000830190938401A0938501B0938601BF916C
:10059000AF919F918F913F912F910F900FBE0F9030
:1005A0001F9018951F920F920FB60F9211242F9340
:1005B0003F934F935F936F937F938F939F93AF93EB
:1005C000BF93EF93FF9387E891E00E946F01FF9143
:1005D000EF91BF91AF919F918F917F916F915F91BB
:1005E0004F913F912F910F900FBE0F901F90189534
:1005F0001F920F920FB60F9211242F938F939F93F8
:10060000EF93FF93E0919701F09198018081E09141
:100610009D01F0919E0182FD12C090818091A00108
:100620008F5F8F732091A101821751F0E091A0019B
:10063000F0E0E957FE4F958F8093A00101C08081C3
:10064000FF91EF919F918F912F910F900FBE0F907F
:100650001F9018950895E0912402F09125020190D1
:10066000F081E02D682F84E292E00994DC01E0E063
:10067000615038F08D91E827F0E0E057FF4FE491AA
:10068000F7CF8E2F0895FC0190810180F281E02D3B
:10069000F8948181892B81832281892F8095282359
:1006A0002283A7E0B0E01197F1F7218182238183B3
:1006B000A3E2B0E01197F1F780817894EFECF0E0DD
:1006C0003197F1F7982381E009F480E00895FC0167
:1006D00090810180F281E02D892F809560FF12C00A
:1006E000F8942281822382838181892B8183A3E2F2
:1006F000B0E01197F1F78281982B9283789487ED7F
:1007000090E011C0F8942281822382838181892B19
:100710008183AFEFB0E01197F1F78281982B92833C
:1007200078948FE090E00197F1F70895CF92DF92EF
:10073000EF92FF920F931F93CF93DF931F92CDB74A
:10074000DEB76C01E62E08E010E0FF24F39461E0D0
:100750008F2D8E2109F460E0C60149830E94670352
:10076000FF0C0150110949810115110581F7411153
:1007700015C0F894D6011196ED91FC9112979181D4
:100780008C918095892381831196ED91FC9112972C
:1007900092818C9180958923828378940F90DF9148
:1007A000CF911F910F91FF90EF90DF90CF90089520
:1007B000CF92DF92EF92FF920F931F93CF93DF932D
:1007C0001F92CDB7DEB78C01F62E40E065E5798348
:1007D0000E949603CF2C7981D72E760188E0E80E0F
:1007E000F11CF60161916F0140E0C8010E9496037F
:1007F000CE14DF04B1F70F90DF91CF911F910F91CD
:10080000FF90EF90DF90CF900895FC0190810180E0
:10081000F281E02DF8948181292F20958223818314
:1008200078948DE743E050E0815021F1DA0111978F
:10083000F1F730813923C1F3F894828182238283D6
:100840008181892B81837894ABE7B7E01197F1F729
:10085000F894818128232183A3E1B1E01197F1F776
:100860008081982381E009F080E07894E3E6F6E067
:100870003197F1F70895AF92BF92CF92DF92EF9246
:10088000FF920F931F93CF93DF938B01BC01809155
:100890004102909142020E94D80340E06EEB8091A9
:1008A0004102909142020E949603E801680189E0AA
:1008B000C80ED11CA0904102B090420288E0E82E00
:1008C000F12C01E010E0C5010E9443038111102BBF
:1008D000000F81E0E81AF108B1F71993CC15DD0596
:1008E00049F780914102909142020E94050491E0F3
:1008F000813009F090E0892FDF91CF911F910F9106
:10090000FF90EF90DF90CF90BF90AF900895CF937E
:10091000DF93CDB7DEB729970FB6F894DEBF0FBED1
:10092000CDBF80914102909142020E94050488232C
:1009300009F43FC0BE016F5F7F4F80E091E00E94ED
:100940003B048823B1F168E0CE0101960E94360392
:10095000998589132EC0298148E0249FB001112474
:100960009A81292F30E0322F2227330F330F330F94
:10097000262B372B809100018031C9F4688570E007
:100980008F81AB01481B5109CA019695982F882782
:10099000979587950E940F0BCB014097207F53E0DE
:1009A000220F331F5A95E1F7820F931F04C0C9012C
:1009B00002C080E894EE29960FB6F894DEBF0FBE11
:1009C000CDBFDF91CF9108950F931F93CF93DF9306
:1009D000CDB7DEB729970FB6F894DEBF0FBECDBFF7
:1009E0008C0180914102909142020E94050488236B
:1009F00009F1BE016F5F7F4FC8010E943B0488234D
:100A0000C9F068E0CE0101960E94360399858913EA
:100A100011C08D818F3361F020F48F3159F489E05A
:100A20000CC08F3519F08F3739F004C08BE005C04A
:100A30008AE003C080E001C08CE029960FB6F894EC
:100A4000DEBF0FBECDBFDF91CF911F910F910895F3
:100A500090E0FC01E458FF4F3491FC01E255FE4F59
:100A60002491FC01E656FE4FE491EE2309F43BC0CD
:100A7000332339F1333091F038F43130A9F032308A
:100A800001F584B58F7D12C0373091F03830A1F078
:100A90003430B9F4809180008F7D03C08091800054
:100AA0008F77809380000DC084B58F7784BD09C097
:100AB0008091B0008F7703C08091B0008F7D8093CC
:100AC000B000F0E0EE0FFF1FEE58FF4FA591B4917C
:100AD0008FB7F894EC91611103C020952E2301C0CB
:100AE0002E2B2C938FBF0895CF93DF93EC0160E002
:100AF0008E810E94280561E08E810E94280560E0B9
:100B00008E810E9428058BE891E00197F1F7DF9133
:100B1000CF910895CF92DF92EF92FF920F931F93A0
:100B2000CF93DF937C016C0187E0C80ED11CC0E03D
:100B3000D0E0062F10E0B8010C2E02C07595679525
:100B40000A94E2F76170F60181916F010E94280515
:100B50002196C430D10579F7C701DF91CF911F915C
:100B60000F91FF90EF90DF90CF900C947405CF928F
:100B7000DF92EF92FF920F931F93CF93DF93EC01DD
:100B8000F62E642F8C810E9428058D818F3F19F0ED
:100B900060E00E9428058F850F2D10E084FF25C09E
:100BA0006E0187E0C80ED11CE12CF12CB8010E2C8F
:100BB00002C0759567950A94E2F76170F60181911C
:100BC0006F010E942805FFEFEF1AFF0A88E0E81680
:100BD000F10461F7CE01DF91CF911F910F91FF904A
:100BE000EF90DF90CF900C947405B80184E0759578
:100BF00067958A95E1F7CE010E948A056F2DCE0197
:100C0000DF91CF911F910F91FF90EF90DF90CF90E8
:100C10000C948A0541E00E94B70581E090E00895B8
:100C200040E00C94B705E0913702E23010F4E15057
:100C300001C0E1E0F0E0EC5DFD4F9489682F690FA1
:100C4000606884E292E00C941006CF93DF9390E00A
:100C5000FC01E255FE4F2491FC01E656FE4F8491C3
:100C6000882361F190E0880F991FFC01E859FF4F3C
:100C7000C591D491FC01EE58FF4FA591B49161113B
:100C800009C09FB7F8948881209582238883EC91CE
:100C90002E230BC0623061F49FB7F8943881822F05
:100CA000809583238883EC912E2B2C939FBF06C0C5
:100CB0008FB7F894E8812E2B28838FBFDF91CF91D7
:100CC0000895EF92FF920F931F93CF93DF93EC0160
:100CD000623018F08F8588608F876B8B1C8A80E468
:100CE0008D8B80E18E8B80E58F8B61E08C810E9403
:100CF00025068D818F3F19F061E00E94250661E095
:100D00008E810E9425067E0187E0E80EF11C00E03E
:100D100010E08F8584FD03C084E090E002C088E08D
:100D200090E0081719074CF461E0F70181917F0109
:100D30000E9425060F5F1F4FECCF8BE39DE00197CC
:100D4000F1F760E08C810E94280560E08E810E94AE
:100D500028058D818F3F19F060E00E9428056F857E
:100D600064FD1DC063E0CE010E948A050BE416E419
:100D7000C8010197F1F763E0CE010E948A05C8011E
:100D80000197F1F763E0CE010E948A0583E592E0C6
:100D90000197F1F762E0CE010E948A0516C06062F9
:100DA000CE010E9410068BE496E40197F1F76F855F
:100DB0006062CE010E94100683E592E00197F1F790
:100DC0006F856062CE010E9410066F856062CE0161
:100DD0000E94100684E0888B6CE0CE010E94100611
:100DE00061E0CE010E9410068BE39FE10197F1F7CD
:100DF00082E0898B66E0CE01DF91CF911F910F9148
:100E0000FF90EF900C9410068F929F92AF92BF923A
:100E1000CF92DF92EF92FF926B017C010E946302FE
:100E20004B015C01C114D104E104F104F1F00E9412
:100E30006302DC01CB0188199909AA09BB09883E24
:100E40009340A105B10570F321E0C21AD108E10871
:100E5000F10888EE880E83E0981EA11CB11CC11415
:100E6000D104E104F10419F7DDCFFF90EF90DF909A
:100E7000CF90BF90AF909F908F900895CF93DF93C6
:100E8000CDB7DEB729970FB6F894DEBF0FBECDBF42
:100E9000789484B5826084BD84B5816084BD85B555
:100EA000826085BD85B5816085BD80916E00816061
:100EB00080936E0010928100809181008260809307
:100EC0008100809181008160809381008091800009
:100ED0008160809380008091B10084608093B10034
:100EE0008091B00081608093B00080917A0084602E
:100EF00080937A0080917A00826080937A0080915A
:100F00007A00816080937A0080917A008068809373
:100F10007A001092C100E0919701F091980182E06F
:100F20008083E0919301F09194011082E09195010A
:100F3000F09196018FEC808310929F01E0919B01CC
:100F4000F0919C0186E08083E0919901F0919A01F3
:100F5000808180618083E0919901F0919A01808184
:100F600088608083E0919901F0919A018081806886
:100F70008083E0919901F0919A0180818F7D808337
:100F800061E08BE00E94250662E084E292E00E942C
:100F9000610666E271E084E292E00E94050280E070
:100FA0000E94130666E271E084E292E00E9405026C
:100FB00068EE73E080E090E00E94040761E084E264
:100FC00092E00E9410068BE39FE10197F1F761E345
:100FD00071E084E292E00E94050286E00E9413061E
:100FE0008FED0E942B0362E471E084E292E00E94A4
:100FF0000502E0914102F0914202138615861486A3
:10100000DF011B9633961E92AE17BF07E1F71092D1
:101010004002CC24C394992493945E0129E0A20E4B
:10102000B11C0091410210914202F80185858111A5
:101030005DC0C8010E940504882309F457C040E040
:1010400060EFC8010E949603EE24E394D12C812C1A
:10105000FF24F394C8010E944303682FC8016987E5
:101060000E9443036985613019F48130C1F435C0B1
:101070002D2D30E068131CC0F8018385F81630F47C
:10108000E20FF31F83818E2151F402C0F81639F06C
:1010900060E0F8E0FF1558F0F801F48608C0F801A8
:1010A000ED0DF11D83818E29838361E009C08F2CB2
:1010B000F801E20FF31F93818E2D8095892383839E
:1010C000C8010E946703F394EE0C19F4D394EE2444
:1010D000E394F7E0FD1508F0BDCF20E42F1530F4C0
:1010E000F801838681108BC1C58689C1F8011386FA
:1010F0001586148665E671E087E891E00E94050296
:1011000000E011E088E0F82EF00E6801F80180811F
:10111000803130F464E471E087E891E00E940502D8
:101120000F5F1F4FF601408150E060E070E020E16A
:1011300087E891E00E941A02F012E7CF68E471E0BC
:1011400087E891E00E94050266E471E087E891E09B
:101150000E94050269E471E087E891E00E940502BF
:1011600080910001803129F080E091E00E94E40448
:1011700001C08CE0482F50E060E070E02AE087E892
:1011800091E00E941A0266E471E087E891E00E9413
:10119000050280914102909142020E94050440E0C4
:1011A0006CEC80914102909142020E949603409122
:1011B0003C0264E480914102909142020E949603B5
:1011C00080913E028823A9F0E0913D02E950E3308E
:1011D00040F4F0E0EE0FFF1FE85FFE4F6081718189
:1011E00002C06EEE72E0072E000C880B990B0E9475
:1011F000040780E00E9413060E9487048138F4EE01
:101200009F077CF0BC01990F880B990B0E94020C80
:1012100020E030E040E05CE30E94B70C6B017C0111
:1012200006C0C12CD12C2EEFE22E22ECF22EC09261
:101230007A01D0927B01E0927C01F0927D0120E066
:1012400030E040EA51E4C701B6010E94CC0B87FFB1
:1012500004C061E08BE00E94280520E030E040EB14
:1012600051E4C701B6010E94B20C181624F460E0E4
:101270008BE00E9428050E948704813824EE9207A3
:10128000BCF0BC01990F880B990B0E94020C20E066
:1012900030E040E05CE30E94B70C6B017C019B01F5
:1012A000AC010E94240D882349F069E571E020C05B
:1012B000C12CD12C9EEFE92E92ECF92E460157015C
:1012C000E894B7F82FEF3FEF4FE75FE7C501B401B0
:1012D0000E94240D811111C02FEF3FEF4FE75FE710
:1012E000C501B4010E94CC0B18163CF46DE571E009
:1012F00084E292E00E94050279C02FEF3FEF4FE7B2
:101300005FE4C701B6010E94B20C18161CF461E636
:1013100071E0EECF2FEF3FEF4FE75FECC701B60173
:101320000E94CC0B87FDF3CF20E030E0A901C7017C
:10133000B6010E94CC0B87FF07C08DE20E942B03F1
:10134000F7FAF094F7F8F0942AE037ED43EA5BE31C
:10135000C701B6010E94600B4B015C010E94D10BDA
:101360006B017C010E94000C9B01AC01C501B40122
:101370000E945F0B4B015C012AE0B701A60184E2E9
:1013800092E00E941A028EE20E942B0320E030E0DD
:1013900040E251E4C501B4010E94B70C4B015C016D
:1013A0000E94D10B6B01E12CF12C2AE0B701A601C0
:1013B00084E292E00E941A02C701B6010E94000C6A
:1013C0009B01AC01C501B4010E945F0B20E030E03D
:1013D00040E251E40E94B70C0E94D10BAB0160E0E7
:1013E00070E02AE084E292E00E941A0268EE73E064
:1013F00080E090E00E9404070E94F901CACEF80143
:101400008381882309F472CE3396DE01119681918F
:101410008D93AA15BB05D9F767E0CE0101960E940E
:10142000360398858913FDCD80913C02811126C039
:1014300080914102909142020E940504BE016F5FBB
:101440007F4F80914102909142020E94D80340E078
:1014500064EB80914102909142020E949603809138
:101460004102909142020E944303182F8091410251
:10147000909142020E9405041123F9F010913D025F
:1014800089818031E9F0CE0101960E94E404811740
:1014900018F480913D0209C08981803111F48CE0FB
:1014A00004C0CE0101960E94E40480933D02809125
:1014B00040028F5F80934002B4CD90923C02DECF19
:1014C0001D3038F7ECCF10928A011092890188EE16
:1014D00093E0A0E0B0E080938B0190938C01A09307
:1014E0008D01B0938E0182E191E090938801809309
:1014F000870185EC90E0909394018093930184ECB4
:1015000090E0909396018093950180EC90E0909309
:1015100098018093970181EC90E090939A018093D9
:10152000990182EC90E090939C0180939B0186EC62
:1015300090E090939E0180939D011092A0011092E3
:10154000A1011092A2011092A30160E082E00E942A
:101550002506E0EBF1E0E491E0934F02ECE9F1E0E5
:10156000E491F0E0EE0FFF1FE057FE4F859194915C
:10157000909351028093500210925A0210925C0292
:1015800010925B02EAE5F2E0129282E0E235F8079F
:10159000D9F78AE293E090934E0280934D028FE454
:1015A00092E0909342028093410210924002109286
:1015B0003C0289E080933D0281E080933E0280936B
:1015C0003F02109227021092260282E291E090934D
:1015D0002502809324028CE0809328028FEF809371
:1015E00029028DE080932A0284E080932B0285E01B
:1015F00080932C0286E080932D0287E080932E0258
:1016000010922F0210923002109231021092320288
:101610001092330261E084E292E00C94610697FB41
:10162000072E16F4009407D077FD09D00E94450BD1
:1016300007FC05D03EF4909581959F4F08957095D5
:1016400061957F4F0895A1E21A2EAA1BBB1BFD01D5
:101650000DC0AA1FBB1FEE1FFF1FA217B307E40791
:10166000F50720F0A21BB30BE40BF50B661F771FE9
:10167000881F991F1A9469F76095709580959095C9
:101680009B01AC01BD01CF010895AA1BBB1B51E119
:1016900007C0AA1FBB1FA617B70710F0A61BB70BE2
:1016A000881F991F5A95A9F780959095BC01CD0187
:1016B0000895EE0FFF1F0590F491E02D0994505806
:1016C000BB27AA270E94770B0C94780C0E946A0C07
:1016D00038F00E94710C20F039F49F3F19F426F481
:1016E0000C94670C0EF4E095E7FB0C94610CE92F69
:1016F0000E94890C58F3BA1762077307840795078D
:1017000020F079F4A6F50C94AB0C0EF4E0950B2EBA
:10171000BA2FA02D0B01B90190010C01CA01A00143
:101720001124FF27591B99F0593F50F4503E68F19E
:101730001A16F040A22F232F342F4427585FF3CFDF
:10174000469537952795A795F0405395C9F77EF4B0
:101750001F16BA0B620B730B840BBAF09150A1F0F9
:10176000FF0FBB1F661F771F881FC2F70EC0BA0F7F
:10177000621F731F841F48F4879577956795B79507
:10178000F7959E3F08F0B0CF9395880F08F0992702
:10179000EE0F9795879508950E943D0C08F481E01F
:1017A00008950E94910C88F09F5798F0B92F9927BF
:1017B000B751B0F0E1F0660F771F881F991F1AF03C
:1017C000BA95C9F714C0B13091F00E94AB0CB1E0EA
:1017D00008950C94AB0C672F782F8827B85F39F0E9
:1017E000B93FCCF3869577956795B395D9F73EF4D5
:1017F00090958095709561957F4F8F4F9F4F08957D
:10180000E89409C097FB3EF490958095709561959A
:101810007F4F8F4F9F4F9923A9F0F92F96E9BB2750
:101820009395F695879577956795B795F111F8CFCC
:10183000FAF4BB0F11F460FF1BC06F5F7F4F8F4F37
:101840009F4F16C0882311F096E911C0772321F02D
:101850009EE8872F762F05C0662371F096E8862FC5
:1018600070E060E02AF09A95660F771F881FDAF71C
:10187000880F9695879597F90895990F0008550F49
:10188000AA0BE0E8FEEF16161706E807F907C0F006
:1018900012161306E407F50798F0621B730B840B0E
:1018A000950B39F40A2661F0232B242B252B21F4E8
:1018B00008950A2609F4A140A6958FEF811D811D88
:1018C000089597F99F6780E870E060E008959FEFC2
:1018D00080EC089500240A941616170618060906C7
:1018E000089500240A941216130614060506089596
:1018F000092E0394000C11F4882352F0BB0F40F41E
:10190000BF2B11F460FF04C06F5F7F4F8F4F9F4F5D
:10191000089557FD9058440F551F59F05F3F71F0DF
:101920004795880F97FB991F61F09F3F79F0879546
:101930000895121613061406551FF2CF4695F1DFCF
:1019400008C0161617061806991FF1CF869571055F
:10195000610508940895E894BB2766277727CB0193
:1019600097F908950E943D0C08F48FEF08950E94A6
:10197000CA0C0C94780C0E946A0C38F00E94710C0E
:1019800020F0952311F00C94610C0C94670C112439
:101990000C94AC0C0E94890C70F3959FC1F3950FC9
:1019A00050E0551F629FF001729FBB27F00DB11DE3
:1019B000639FAA27F00DB11DAA1F649F6627B00D73
:1019C000A11D661F829F2227B00DA11D621F739F5C
:1019D000B00DA11D621F839FA00D611D221F749F6A
:1019E0003327A00D611D231F849F600D211D822FB1
:1019F000762F6A2F11249F5750409AF0F1F08823D8
:101A00004AF0EE0FFF1FBB1F661F771F881F915004
:101A10005040A9F79E3F510580F00C94610C0C9446
:101A2000AC0C5F3FE4F3983ED4F3869577956795C9
:101A3000B795F795E7959F5FC1F7FE2B880F911D2E
:101A40009695879597F908950E943D0C880B990B00
:101A5000089581E090E0F8940C942E0DF894FFCF57
:101A600028FF63C2851604595E00BC0077010000A0
:101A7000000090010C01590137014B01D701000012
:101A800000000A060C0153656E64204E7564657390
:101A90000054656D70657261747572652069733A82
:101AA0002000430030000D0A005265736F6C75749E
:101AB000696F6E2069733A20006E616E00696E6610
:101AC000006F7666004465766963652061646472C0
:0A1AD0006573732069733A2000006B
:00000001FF
