:100000000C94E2000C940A010C940A010C940A016D
:100010000C940A010C940A010C940A010C940A0134
:100020000C940A010C940A010C940A010C940A0124
:100030000C940A010C940A010C940A010C940A0114
:100040000C94F8020C940A010C9468030C9442037B
:100050000C940A010C940A010C940A010C940A01F4
:100060000C940A010C940A01005EBCE2613FDD833E
:10007000C29C7E20A3FD1F419DC3217FFCA2401E88
:100080005F01E3BD3E6082DC237D9FC1421CFEA078
:10009000E1BF5D0380DE3C62BEE0025CDF81633D68
:1000A0007C22C09E1D43A1FF4618FAA427799BC558
:1000B00084DA3866E5BB5907DB856739BAE4065848
:1000C0001947A5FB7826C49A653BD987045AB8E638
:1000D000A7F91B45C6987A24F8A6441A99C7257B28
:1000E0003A6486D85B05E7B98CD2306EEDB3510F18
:1000F0004E10F2AC2F7193CD114FADF3702ECC9208
:10010000D38D6F31B2EC0E50AFF1134DCE90722CF7
:100110006D33D18F0C52B0EE326C8ED0530DEFB1E7
:10012000F0AE4C1291CF2D73CA947628ABF51749D7
:100130000856B4EA6937D58B5709EBB536688AD4C7
:1001400095CB2977F4AA4816E9B7550B88D6346AB7
:100150002B7597C94A14F6A8742AC896154BA9F7A7
:10016000B6E80A54D7896B35000000002400270048
:100170002A0000000000250028002B0000000008D5
:10018000000201000003040700000000000000005E
:1001900000000000230026002900040404040404D5
:1001A0000404020202020202030303030303010226
:1001B00004081020408001020408102001020408F5
:1001C00010200C0A11241FBECFEFD8E0DEBFCDBF38
:1001D00011E0A0E0B1E0E2EBF9E102C005900D9280
:1001E000AA37B107D9F722E0AAE7B1E001C01D9212
:1001F000A935B207E1F710E0C2EED0E004C02197C4
:10020000FE010E94020BC13ED107C9F70E94E10620
:100210000C94D70C0C9400003FB7F89480917F01A8
:1002200090918001A0918101B091820126B5A89B97
:1002300005C02F3F19F00196A11DB11D3FBFBA2F78
:10024000A92F982F8827820F911DA11DB11DBC01D8
:10025000CD0142E0660F771F881F991F4A95D1F79D
:1002600008958F929F92AF92BF92CF92DF92EF92BA
:10027000FF926B017C010E940C014B015C01C114D7
:10028000D104E104F104F1F00E940C01DC01CB0186
:1002900088199909AA09BB09883E9340A105B105AF
:1002A00070F321E0C21AD108E108F10888EE880E47
:1002B00083E0981EA11CB11CC114D104E104F10417
:1002C00019F7DDCFFF90EF90DF90CF90BF90AF9008
:1002D0009F908F900895CF92DF92EF92FF920F93AD
:1002E0001F93CF93DF936C017A018B01C0E0D0E0C4
:1002F000CE15DF0589F0D8016D918D01D601ED9104
:10030000FC910190F081E02DC6010995892B11F433
:100310007E0102C02196ECCFC701DF91CF911F91E2
:100320000F91FF90EF90DF90CF900895FC01918D99
:10033000828D981761F0828DDF01A80FB11D5D9647
:100340008C91928D9F5F9F73928F90E008958FEFB5
:100350009FEF0895FC01918D828D981731F0828D69
:10036000E80FF11D858D90E008958FEF9FEF0895C0
:10037000FC01918D228D892F90E0805C9F4F821B24
:1003800091098F739927089583E891E00E94B8013D
:1003900021E0892B09F420E0822F0895FC01848D4F
:1003A000DF01A80FB11DA35ABF4F2C91848D90E09F
:1003B00001968F739927848FA689B7892C93A0897A
:1003C000B1898C9180648C93938D848D981306C031
:1003D0000288F389E02D80818F7D80830895EF92DC
:1003E000FF920F931F93CF93DF93EC0181E0888FEF
:1003F0009B8D8C8D981305C0E889F989808185FDD6
:1004000024C0F62E0B8D10E00F5F1F4F0F731127C6
:10041000E02E8C8DE8120CC00FB607FCFACFE889ED
:10042000F989808185FFF5CFCE010E94CE01F1CF01
:100430008B8DFE01E80FF11DE35AFF4FF0820B8F09
:10044000EA89FB898081806207C0EE89FF89608329
:10045000E889F98980818064808381E090E0DF9180
:10046000CF911F910F91FF90EF900895CF93DF935D
:10047000EC01888D8823C9F0EA89FB89808185FD9C
:1004800005C0A889B9898C9186FD0FC00FB607FCFD
:10049000F5CF808185FFF2CFA889B9898C9185FF3E
:1004A000EDCFCE010E94CE01E7CFDF91CF9108952D
:1004B00080E090E0892B29F00E94C40181110C9406
:1004C000000008950E94D20C6115710579F0FB01BE
:1004D00001900020E9F73197AF01461B570BDC0173
:1004E000ED91FC910280F381E02D099480E090E091
:1004F00008954F925F926F927F92EF92FF920F93C7
:100500001F93CF93DF93CDB7DEB7A1970FB6F894C3
:10051000DEBF0FBECDBF7C01FA01CB0119A2223094
:1005200008F42AE08E010F5D1F4F422E512C612CE2
:10053000712CBF01A30192010E94CC0AF901CA01EA
:10054000015011096A3014F4605D01C0695CD80182
:100550006C93232B242B252B61F7B801C7010E9434
:100560006402A1960FB6F894DEBF0FBECDBFDF9137
:10057000CF911F910F91FF90EF907F906F905F90C0
:100580004F900895FC0190810180F281E02DF89454
:100590008181292F20958223818378948DE743E000
:1005A00050E0815021F1DA011197F1F730813923C0
:1005B000C1F3F8948281822382838181892B818394
:1005C0007894ABE7B7E01197F1F7F894818128238D
:1005D0002183A3E1B1E01197F1F78081982381E0B5
:1005E00009F080E07894E3E6F6E03197F1F70895BA
:1005F0001F920F920FB60F9211242F933F938F9358
:100600009F93AF93BF9380917B0190917C01A091C8
:100610007D01B0917E0130917A0123E0230F2D37C7
:1006200020F40196A11DB11D05C026E8230F0296F6
:10063000A11DB11D20937A0180937B0190937C01D1
:10064000A0937D01B0937E0180917F019091800104
:10065000A0918101B09182010196A11DB11D8093ED
:100660007F0190938001A0938101B0938201BF919B
:10067000AF919F918F913F912F910F900FBE0F904F
:100680001F9018951F920F920FB60F9211242F935F
:100690003F934F935F936F937F938F939F93AF930A
:1006A000BF93EF93FF9383E891E00E94CE01FF9107
:1006B000EF91BF91AF919F918F917F916F915F91DA
:1006C0004F913F912F910F900FBE0F901F90189553
:1006D0001F920F920FB60F9211242F938F939F9317
:1006E000EF93FF93E0919301F09194018081E09169
:1006F0009901F0919A0182FD12C0908180919C0134
:100700008F5F8F7320919D01821751F0E0919C01C2
:10071000F0E0ED57FE4F958F80939C0101C08081E2
:10072000FF91EF919F918F912F910F900FBE0F909E
:100730001F901895089590E0FC01E458FE4F349105
:10074000FC01E255FE4F2491FC01E656FE4FE49178
:10075000EE2309F43BC0332339F1333091F038F400
:100760003130A9F0323001F584B58F7D12C03730B9
:1007700091F03830A1F03430B9F4809180008F7D51
:1007800003C0809180008F77809380000DC084B576
:100790008F7784BD09C08091B0008F7703C08091AE
:1007A000B0008F7D8093B000F0E0EE0FFF1FEE5899
:1007B000FE4FA591B4918FB7F894EC91611103C0ED
:1007C00020952E2301C02E2B2C938FBF0895CF93FD
:1007D000DF9390E0FC01E255FE4F2491FC01E656C8
:1007E000FE4F8491882361F190E0880F991FFC01EE
:1007F000E859FE4FC591D491FC01EE58FE4FA591EA
:10080000B491611109C09FB7F89488812095822323
:100810008883EC912E230BC0623061F49FB7F8946B
:100820003881822F809583238883EC912E2B2C9303
:100830009FBF06C08FB7F894E8812E2B28838FBF07
:10084000DF91CF910895CF93DF93EC0160E08E812B
:100850000E949B0361E08E810E949B0360E08E8179
:100860000E949B038BE891E00197F1F7DF91CF9114
:100870000895CF92DF92EF92FF920F931F93CF9341
:10088000DF937C016C0187E0C80ED11CC0E0D0E092
:10089000062F10E0B8010C2E02C0759567950A94DA
:1008A000E2F76170F60181916F010E949B0321962E
:1008B000C430D10579F7C701DF91CF911F910F9116
:1008C000FF90EF90DF90CF900C942304CF92DF92B3
:1008D000EF92FF920F931F93CF93DF93EC01F62ECD
:1008E000642F8C810E949B038D818F3F19F060E003
:1008F0000E949B038F850F2D10E084FF25C06E01A1
:1009000087E0C80ED11CE12CF12CB8010E2C02C0DE
:10091000759567950A94E2F76170F60181916F0110
:100920000E949B03FFEFEF1AFF0A88E0E816F1042C
:1009300061F7CE01DF91CF911F910F91FF90EF9062
:10094000DF90CF900C942304B80184E075956795EF
:100950008A95E1F7CE010E9439046F2DCE01DF9117
:10096000CF911F910F91FF90EF90DF90CF900C945B
:10097000390441E00E94660481E090E00895E0912E
:100980002002F09121020190F081E02D682F80E299
:1009900092E0099440E00C946604EF92FF920F936A
:1009A0001F93CF93DF93EC01623018F08F8588603E
:1009B0008F876B8B1C8A80E48D8B80E18E8B80E52A
:1009C0008F8B61E08C810E94E7038D818F3F19F04E
:1009D00061E00E94E70361E08E810E94E7037E01EF
:1009E00087E0E80EF11C00E010E08F8584FD03C075
:1009F00084E090E002C088E090E0081719074CF40A
:100A000061E0F70181917F010E94E7030F5F1F4FB3
:100A1000ECCF8BE39DE00197F1F760E08C810E94C1
:100A20009B0360E08E810E949B038D818F3F19F0B4
:100A300060E00E949B036F8564FD1DC063E0CE01F2
:100A40000E9439040BE416E4C8010197F1F763E052
:100A5000CE010E943904C8010197F1F763E0CE018D
:100A60000E94390483E592E00197F1F762E0CE013C
:100A70000E94390416C06062CE010E94CA048BE451
:100A800096E40197F1F76F856062CE010E94CA0477
:100A900083E592E00197F1F76F856062CE010E94D5
:100AA000CA046F856062CE010E94CA0484E0888B0C
:100AB0006CE0CE010E94CA0461E0CE010E94CA042B
:100AC0008BE39FE10197F1F782E0898B66E0CE012D
:100AD000DF91CF911F910F91FF90EF900C94CA047A
:100AE000E0913302E23010F4E15001C0E1E0F0E0C7
:100AF000E05EFD4F9489682F690F606880E292E0A4
:100B00000C94CA04DC01E0E0615038F08D91E827D4
:100B1000F0E0E859FF4FE491F7CF8E2F0895FC01E4
:100B200090810180F281E02DF8948181892B81836D
:100B30002281892F809528232283A7E0B0E0119796
:100B4000F1F7218182238183A3E2B0E01197F1F7CD
:100B500080817894EFECF0E03197F1F7982381E011
:100B600009F480E00895FC0190810180F281E02D7C
:100B7000892F809560FF12C0F8942281822382839E
:100B80008181892B8183A3E2B0E01197F1F7828103
:100B9000982B9283789487ED90E011C0F89422818D
:100BA000822382838181892B8183AFEFB0E011970B
:100BB000F1F78281982B928378948FE090E00197EF
:100BC000F1F70895CF92DF92EF92FF920F931F9368
:100BD000CF93DF931F92CDB7DEB76C01E62E08E00E
:100BE00010E0FF24F39461E08F2D8E2109F460E082
:100BF000C60149830E94B305FF0C015011094981C8
:100C00000115110581F7411115C0F894D60111960F
:100C1000ED91FC91129791818C918095892381832C
:100C20001196ED91FC91129792818C918095892378
:100C3000828378940F90DF91CF911F910F91FF9055
:100C4000EF90DF90CF900895CF92DF92EF92FF92D6
:100C50000F931F93CF93DF931F92CDB7DEB78C0115
:100C6000F62E40E065E579830E94E205CF2C79817C
:100C7000D72E760188E0E80EF11CF60161916F0134
:100C800040E0C8010E94E205CE14DF04B1F70F90E6
:100C9000DF91CF911F910F91FF90EF90DF90CF9058
:100CA0000895AF92BF92CF92DF92EF92FF920F938F
:100CB0001F93CF93DF938B01BC0180913D029091F4
:100CC0003E020E94240640E06EEB80913D0290912E
:100CD0003E020E94E205E801680189E0C80ED11CCD
:100CE000A0903D02B0903E0288E0E82EF12C01E099
:100CF00010E0C5010E948F058111102B000F81E0CB
:100D0000E81AF108B1F71993CC15DD0549F7809180
:100D10003D0290913E020E94C20291E0813009F0B2
:100D200090E0892FDF91CF911F910F91FF90EF906D
:100D3000DF90CF90BF90AF9008950F931F93CF9304
:100D4000DF93CDB7DEB729970FB6F894DEBF0FBE9D
:100D5000CDBF8C0180913D0290913E020E94C20263
:100D6000882309F1BE016F5F7F4FC8010E945106C1
:100D70008823C9F068E0CE0101960E94820599851A
:100D8000891311C08D818F3361F020F48F3159F4B4
:100D900089E00CC08F3519F08F3739F004C08BE033
:100DA00005C08AE003C080E001C08CE029960FB640
:100DB000F894DEBF0FBECDBFDF91CF911F910F9191
:100DC0000895CF93DF93CDB7DEB72A970FB6F89487
:100DD000DEBF0FBECDBF789484B5826084BD84B57C
:100DE000816084BD85B5826085BD85B5816085BD26
:100DF00080916E00816080936E00109281008091DE
:100E00008100826080938100809181008160809365
:100E10008100809180008160809380008091B1008A
:100E200084608093B1008091B00081608093B000B5
:100E300080917A00846080937A0080917A00826049
:100E400080937A0080917A00816080937A0080910B
:100E50007A00806880937A001092C100E09193013B
:100E6000F091940182E08083E0918F01F0919001F4
:100E70001082E0919101F09192018FEC80831092A9
:100E80009B01E0919701F091980186E08083E091C9
:100E90009501F0919601808180618083E0919501B8
:100EA000F0919601808188608083E0919501F091B6
:100EB0009601808180688083E0919501F091960190
:100EC00080818F7D808362E080E292E00E94CD0489
:100ED00066E271E080E292E00E94640280E00E949B
:100EE000700566E271E080E292E00E94640268EEC2
:100EF00073E080E090E00E94310161E080E292E0E6
:100F00000E94CA048BE39FE10197F1F761E371E06E
:100F100080E292E00E94640286E00E9470058FEDFC
:100F20000E94BF0462E471E080E292E00E946402E9
:100F3000E0913D02F0913E02138615861486DF0192
:100F40001B9633961E92AE17BF07E1F710923C0234
:100F5000CC24C394992493945E0149E0A40EB11C5F
:100F600000913D0210913E02F801858581115DC01E
:100F7000C8010E94C202882309F457C040E060EF14
:100F8000C8010E94E205EE24E394D12C812CFF24B9
:100F9000F394C8010E948F05682FC8016A870E94D8
:100FA0008F056A85613019F48130C1F435C02D2D6B
:100FB00030E068131CC0F8018385F81630F4E20FA6
:100FC000F31F83818E2151F402C0F81639F060E0DE
:100FD000F8E0FF1558F0F801F48608C0F801ED0DAF
:100FE000F11D83818E29838361E009C08F2CF80174
:100FF000E20FF31F93818E2D809589238383C8018F
:101000000E94B305F394EE0C19F4D394EE24E39408
:10101000F7E0FD1508F0BDCF40E44F1530F4F801BE
:101020008386811092C1C58690C1F801138615860A
:10103000148665E671E083E891E00E94640200E0B6
:1010400011E088E0F82EF00E6801F801808180310F
:1010500030F464E471E083E891E00E9464020F5F81
:101060001F4FF601408150E060E070E020E183E82E
:1010700091E00E947902F012E7CF68E471E083E822
:1010800091E00E94640266E471E083E891E00E94CE
:10109000640269E471E083E891E00E946402809157
:1010A0000001803129F080E091E00E949D0601C09E
:1010B0008CE0482F50E060E070E02AE083E891E0A7
:1010C0000E94790266E471E083E891E00E94640284
:1010D00080913D0290913E020E94C20240E06CEC81
:1010E00080913D0290913E020E94E20540913802BB
:1010F00064E480913D0290913E020E94E20580915D
:101100003A028823A9F0E0913902E950E33040F433
:10111000F0E0EE0FFF1FE85FFE4F6081718102C0BB
:101120006EEE72E0072E000C880B990B0E943101C5
:1011300080E00E94700580913D0290913E020E94E5
:10114000C202882309F462C1BE016F5F7F4F80E055
:1011500091E00E945106882309F458C168E0CE014D
:1011600001960E9482059985891350C16981F8E032
:101170006F9FB00111248A81282F30E0322F22275F
:10118000330F330F330F262B372B80910001803123
:10119000C9F4688570E08F81AB01481B5109CA0111
:1011A0009695982F8827979587950E94B80A605141
:1011B0007109207F53E0220F331F5A95E1F7620F28
:1011C000731F01C0B901613854EE7507BCF0072EDA
:1011D000000C880B990B0E94AB0B20E030E040E044
:1011E0005CE30E94600C6B017C019B01AC010E94DE
:1011F000CD0C882349F069E571E020C0C12CD12CC9
:101200009EEFE92E92ECF92E46015701E894B7F8CB
:101210002FEF3FEF4FE75FE7C501B4010E94CD0C10
:10122000811111C02FEF3FEF4FE75FE7C501B40118
:101230000E94750B18163CF46DE571E080E292E0B7
:101240000E94640279C02FEF3FEF4FE75FE4C701D0
:10125000B6010E945B0C18161CF461E671E0EECF3B
:101260002FEF3FEF4FE75FECC701B6010E94750B10
:1012700087FDF3CF20E030E0A901C701B6010E944D
:10128000750B87FF07C08DE20E94BF04F7FAF09448
:10129000F7F8F0942AE037ED43EA5BE3C701B601C3
:1012A0000E94090B4B015C010E947A0B6B017C01CF
:1012B0000E94A90B9B01AC01C501B4010E94080B5F
:1012C0004B015C012AE0B701A60180E292E00E9496
:1012D00079028EE20E94BF0420E030E040E251E457
:1012E000C501B4010E94600C4B015C010E947A0BA5
:1012F0006B01E12CF12C2AE0B701A60180E292E01B
:101300000E947902C701B6010E94A90B9B01AC01A2
:10131000C501B4010E94080B20E030E040E251E436
:101320000E94600C0E947A0BAB0160E070E02AE042
:1013300080E292E00E94790268EE73E080E090E043
:101340000E9431010E945802C3CEF8018381882394
:1013500009F46BCE3396DE01119681918D93AA1517
:10136000BB05D9F767E0CE0101960E9482059885FA
:101370008913F6CD80913802811126C080913D02FB
:1013800090913E020E94C202BE016F5F7F4F80912A
:101390003D0290913E020E94240640E064EB809161
:1013A0003D0290913E020E94E20580913D029091A3
:1013B0003E020E948F05182F80913D0290913E02BF
:1013C0000E94C2021123F9F0109139028981803103
:1013D00001F1CE0101960E949D06811718F48091BB
:1013E000390209C08981803111F48CE004C0CE013A
:1013F00001960E949D068093390280913C028F5F86
:1014000080933C02ADCD90923802DECF60E874EE5E
:10141000DACE1D3020F7E9CF1092860110928501B7
:1014200088EE93E0A0E0B0E080938701909388017C
:10143000A0938901B0938A0182E191E090938401A5
:101440008093830185EC90E09093900180938F01CD
:1014500084EC90E0909392018093910180EC90E075
:10146000909394018093930181EC90E09093960186
:101470008093950182EC90E090939801809397017E
:1014800086EC90E090939A018093990110929C01D0
:1014900010929D0110929E0110929F0160E082E0E7
:1014A0000E94E703E0EBF1E0E491E0934B02ECE90A
:1014B000F1E0E491F0E0EE0FFF1FE057FE4F859161
:1014C000949190934D0280934C0210925602109288
:1014D000580210925702E6E5F2E0129282E0EE34F2
:1014E000F807D9F78AE993E090934A02809349027A
:1014F0008BE492E090933E0280933D0210923C0276
:101500001092380289E08093390281E080933A0298
:1015100080933B02109223021092220282E291E019
:1015200090932102809320028CE0809324028FEF1D
:10153000809325028DE08093260284E08093270229
:1015400085E08093280286E08093290287E08093DB
:101550002A0210922B0210922C0210922D0210924D
:101560002E0210922F0261E080E292E00C94CD04F2
:1015700097FB072E16F4009407D077FD09D00E9440
:10158000EE0A07FC05D03EF4909581959F4F089593
:10159000709561957F4F0895A1E21A2EAA1BBB1B7F
:1015A000FD010DC0AA1FBB1FEE1FFF1FA217B3072F
:1015B000E407F50720F0A21BB30BE40BF50B661F45
:1015C000771F881F991F1A9469F760957095809509
:1015D00090959B01AC01BD01CF010895AA1BBB1BD7
:1015E00051E107C0AA1FBB1FA617B70710F0A61B23
:1015F000B70B881F991F5A95A9F780959095BC0144
:10160000CD010895EE0FFF1F0590F491E02D099490
:101610005058BB27AA270E94200B0C94210C0E9433
:10162000130C38F00E941A0C20F039F49F3F19F483
:1016300026F40C94100C0EF4E095E7FB0C940A0CC5
:10164000E92F0E94320C58F3BA1762077307840718
:10165000950720F079F4A6F50C94540C0EF4E0955F
:101660000B2EBA2FA02D0B01B90190010C01CA015C
:10167000A0011124FF27591B99F0593F50F4503E07
:1016800068F11A16F040A22F232F342F4427585FF9
:10169000F3CF469537952795A795F0405395C9F711
:1016A0007EF41F16BA0B620B730B840BBAF09150C9
:1016B000A1F0FF0FBB1F661F771F881FC2F70EC068
:1016C000BA0F621F731F841F48F48795779567953B
:1016D000B795F7959E3F08F0B0CF9395880F08F027
:1016E0009927EE0F9795879508950E94E60B08F4C9
:1016F00081E008950E943A0C88F09F5798F0B92F26
:101700009927B751B0F0E1F0660F771F881F991F36
:101710001AF0BA95C9F714C0B13091F00E94540C78
:10172000B1E008950C94540C672F782F8827B85F88
:1017300039F0B93FCCF3869577956795B395D9F78E
:101740003EF490958095709561957F4F8F4F9F4F98
:101750000895E89409C097FB3EF4909580957095A4
:1017600061957F4F8F4F9F4F9923A9F0F92F96E9ED
:10177000BB279395F695879577956795B795F11162
:10178000F8CFFAF4BB0F11F460FF1BC06F5F7F4FFF
:101790008F4F9F4F16C0882311F096E911C0772311
:1017A00021F09EE8872F762F05C0662371F096E81A
:1017B000862F70E060E02AF09A95660F771F881FE9
:1017C000DAF7880F9695879597F90895990F00088D
:1017D000550FAA0BE0E8FEEF16161706E807F90703
:1017E000C0F012161306E407F50798F0621B730B9E
:1017F000840B950B39F40A2661F0232B242B252B1F
:1018000021F408950A2609F4A140A6958FEF811DC1
:10181000811D089597F99F6780E870E060E0089562
:101820009FEF80EC089500240A94161617061806F8
:101830000906089500240A941216130614060506D4
:101840000895092E0394000C11F4882352F0BB0F65
:1018500040F4BF2B11F460FF04C06F5F7F4F8F4FC8
:101860009F4F089557FD9058440F551F59F05F3F03
:1018700071F04795880F97FB991F61F09F3F79F0B2
:1018800087950895121613061406551FF2CF469534
:10189000F1DF08C0161617061806991FF1CF8695B6
:1018A0007105610508940895E894BB27662777279A
:1018B000CB0197F908950E94E60B08F48FEF089585
:1018C0000E94730C0C94210C0E94130C38F00E949F
:1018D0001A0C20F0952311F00C940A0C0C94100CA7
:1018E00011240C94550C0E94320C70F3959FC1F397
:1018F000950F50E0551F629FF001729FBB27F00DBE
:10190000B11D639FAA27F00DB11DAA1F649F662712
:10191000B00DA11D661F829F2227B00DA11D621F61
:10192000739FB00DA11D621F839FA00D611D221F1B
:10193000749F3327A00D611D231F849F600D211DFF
:10194000822F762F6A2F11249F5750409AF0F1F082
:1019500088234AF0EE0FFF1FBB1F661F771F881FEB
:1019600091505040A9F79E3F510580F00C940A0C0D
:101970000C94550C5F3FE4F3983ED4F3869577952D
:101980006795B795F795E7959F5FC1F7FE2B880F91
:10199000911D9695879597F908950E94E60B880BFF
:1019A000990B089581E090E0F8940C94D70CF8948A
:0219B000FFCF67
:1019B20028FF63C2851604595E00BC00770100004F
:1019C2000000EF016B01B8019601AA013602000086
:1019D2000000B9046B0153656E64204E7564657333
:1019E2000054656D70657261747572652069733A31
:1019F2002000430030000D0A005265736F6C75744D
:101A0200696F6E2069733A20006E616E00696E66BE
:101A1200006F76660044657669636520616464726E
:0A1A22006573732069733A20000019
:00000001FF
