:100000000C94E2000C940A010C940A010C940A016D
:100010000C940A010C940A010C940A010C940A0134
:100020000C940A010C940A010C940A010C940A0124
:100030000C940A010C940A010C940A010C940A0114
:100040000C943D060C940A010C94AD060C948706A2
:100050000C940A010C940A010C940A010C940A01F4
:100060000C940A010C940A01005EBCE2613FDD833E
:10007000C29C7E20A3FD1F419DC3217FFCA2401E88
:100080005F01E3BD3E6082DC237D9FC1421CFEA078
:10009000E1BF5D0380DE3C62BEE0025CDF81633D68
:1000A0007C22C09E1D43A1FF4618FAA427799BC558
:1000B00084DA3866E5BB5907DB856739BAE4065848
:1000C0001947A5FB7826C49A653BD987045AB8E638
:1000D000A7F91B45C6987A24F8A6441A99C7257B28
:1000E0003A6486D85B05E7B98CD2306EEDB3510F18
:1000F0004E10F2AC2F7193CD114FADF3702ECC9208
:10010000D38D6F31B2EC0E50AFF1134DCE90722CF7
:100110006D33D18F0C52B0EE326C8ED0530DEFB1E7
:10012000F0AE4C1291CF2D73CA947628ABF51749D7
:100130000856B4EA6937D58B5709EBB536688AD4C7
:1001400095CB2977F4AA4816E9B7550B88D6346AB7
:100150002B7597C94A14F6A8742AC896154BA9F7A7
:10016000B6E80A54D7896B35000000002400270048
:100170002A0000000000250028002B0000000008D5
:10018000000201000003040700000000000000005E
:1001900000000000230026002900040404040404D5
:1001A0000404020202020202030303030303010226
:1001B00004081020408001020408102001020408F5
:1001C0001020DF0611241FBECFEFD8E0DEBFCDBF69
:1001D00011E0A0E0B1E0E6E1F9E102C005900D9286
:1001E000A238B107D9F722E0A2E8B1E001C01D9220
:1001F000A136B207E1F710E0C2EED0E004C02197CB
:10020000FE010E94B40AC13ED107C9F70E948B07C4
:100210000C94890C0C9400000895E0912802F09150
:1002200029020190F081E02D682F88E292E0099484
:1002300090E0FC01E458FE4F3491FC01E255FE4F82
:100240002491FC01E656FE4FE491EE2309F43BC0F5
:10025000332339F1333091F038F43130A9F03230B2
:1002600001F584B58F7D12C0373091F03830A1F0A0
:100270003430B9F4809180008F7D03C0809180007C
:100280008F77809380000DC084B58F7784BD09C0BF
:100290008091B0008F7703C08091B0008F7D8093F4
:1002A000B000F0E0EE0FFF1FEE58FE4FA591B491A5
:1002B0008FB7F894EC91611103C020952E2301C0F3
:1002C0002E2B2C938FBF0895CF93DF9390E0FC01EA
:1002D000E255FE4F2491FC01E656FE4F849188239F
:1002E00061F190E0880F991FFC01E859FE4FC5911C
:1002F000D491FC01EE58FE4FA591B491611109C053
:100300009FB7F8948881209582238883EC912E23CF
:100310000BC0623061F49FB7F8943881822F8095CA
:1003200083238883EC912E2B2C939FBF06C08FB71D
:10033000F894E8812E2B28838FBFDF91CF91089509
:10034000CF93DF93EC0160E08E810E94180161E0A1
:100350008E810E94180160E08E810E9418018BE856
:1003600091E00197F1F7DF91CF910895CF92DF925D
:10037000EF92FF920F931F93CF93DF937C016C0159
:1003800087E0C80ED11CC0E0D0E0062F10E0B80115
:100390000C2E02C0759567950A94E2F76170F6011C
:1003A00081916F010E9418012196C430D10579F71F
:1003B000C701DF91CF911F910F91FF90EF90DF90D8
:1003C000CF900C94A001CF92DF92EF92FF920F9307
:1003D0001F93CF93DF93EC01F62E642F8C810E9444
:1003E00018018D818F3F19F060E00E9418018F8500
:1003F0000F2D10E084FF25C06E0187E0C80ED11CD0
:10040000E12CF12CB8010E2C02C0759567950A9469
:10041000E2F76170F60181916F010E941801FFEF10
:10042000EF1AFF0A88E0E816F10461F7CE01DF91C8
:10043000CF911F910F91FF90EF90DF90CF900C9490
:10044000A001B80184E0759567958A95E1F7CE0122
:100450000E94B6016F2DCE01DF91CF911F910F91B8
:10046000FF90EF90DF90CF900C94B60141E00E9496
:10047000E30181E090E0089540E00C94E301EF9205
:10048000FF920F931F93CF93DF93EC01623018F02C
:100490008F8588608F876B8B1C8A80E48D8B80E1D1
:1004A0008E8B80E58F8B61E08C810E9464018D8151
:1004B0008F3F19F061E00E94640161E08E810E942B
:1004C00064017E0187E0E80EF11C00E010E08F85FA
:1004D00084FD03C084E090E002C088E090E008174B
:1004E00019074CF461E0F70181917F010E946401DA
:1004F0000F5F1F4FECCF8BE39DE00197F1F760E0BA
:100500008C810E94180160E08E810E9418018D810B
:100510008F3F19F060E00E9418016F8564FD1DC0D7
:1005200063E0CE010E94B6010BE416E4C801019716
:10053000F1F763E0CE010E94B601C8010197F1F71F
:1005400063E0CE010E94B60183E592E00197F1F7E6
:1005500062E0CE010E94B60116C06062CE010E9428
:100560003C028BE496E40197F1F76F856062CE015F
:100570000E943C0283E592E00197F1F76F8560628B
:10058000CE010E943C026F856062CE010E943C0257
:1005900084E0888B6CE0CE010E943C0261E0CE01D9
:1005A0000E943C028BE39FE10197F1F782E0898B87
:1005B00066E0CE01DF91CF911F910F91FF90EF90F8
:1005C0000C943C02E0913B02E23010F4E15001C097
:1005D000E1E0F0E0E85DFD4F9489682F690F606805
:1005E00088E292E00C943C02DC01E0E0615038F0DB
:1005F0008D91E827F0E0E859FF4FE491F7CF8E2F77
:100600000895FC0190810180F281E02DF8948181B0
:10061000892B81832281892F809528232283A7E03B
:10062000B0E01197F1F7218182238183A3E2B0E04A
:100630001197F1F780817894EFECF0E03197F1F7C2
:10064000982381E009F480E00895FC019081018005
:10065000F281E02D892F809560FF12C0F8942281ED
:10066000822382838181892B8183A3E2B0E0119769
:10067000F1F78281982B9283789487ED90E011C0F6
:10068000F8942281822382838181892B8183AFEF39
:10069000B0E01197F1F78281982B928378948FE0E4
:1006A00090E00197F1F70895CF92DF92EF92FF92D9
:1006B0000F931F93CF93DF931F92CDB7DEB76C01DB
:1006C000E62E08E010E0FF24F39461E08F2D8E21E8
:1006D00009F460E0C60149830E942503FF0C015024
:1006E000110949810115110581F7411115C0F894CF
:1006F000D6011196ED91FC91129791818C91809584
:10070000892381831196ED91FC91129792818C91AE
:1007100080958923828378940F90DF91CF911F91E8
:100720000F91FF90EF90DF90CF900895CF92DF92DE
:10073000EF92FF920F931F93CF93DF931F92CDB74A
:10074000DEB78C01F62E40E065E579830E94540304
:10075000CF2C7981D72E760188E0E80EF11CF601C6
:1007600061916F0140E0C8010E945403CE14DF0480
:10077000B1F70F90DF91CF911F910F91FF90EF9004
:10078000DF90CF900895FC0190810180F281E02DEF
:10079000F8948181292F20958223818378948DE795
:1007A00043E050E0815021F1DA011197F1F73081F7
:1007B0003923C1F3F8948281822382838181892B3A
:1007C00081837894ABE7B7E01197F1F7F8948181D2
:1007D00028232183A3E1B1E01197F1F780819823C9
:1007E00081E009F080E07894E3E6F6E03197F1F7F4
:1007F0000895AF92BF92CF92DF92EF92FF920F9344
:100800001F93CF93DF938B01BC01809145029091A0
:1008100046020E94960340E06EEB80914502909163
:1008200046020E945403E801680189E0C80ED11C09
:10083000A0904502B090460288E0E82EF12C01E03D
:1008400010E0C5010E9401038111102B000F81E00F
:10085000E81AF108B1F71993CC15DD0549F7809135
:100860004502909146020E94C30391E0813009F055
:1008700090E0892FDF91CF911F910F91FF90EF9022
:10088000DF90CF90BF90AF9008950F931F93CF93B9
:10089000DF93CDB7DEB729970FB6F894DEBF0FBE52
:1008A000CDBFFC012081203161F18C018091450296
:1008B000909146020E94C303882309F1BE016F5F35
:1008C0007F4FC8010E94F9038823C9F068E0CE0178
:1008D00001960E94F4029985891311C08D818F338E
:1008E00061F020F48F3159F489E00CC08F3519F094
:1008F0008F3739F004C08BE005C08AE003C080E088
:1009000001C08CE029960FB6F894DEBF0FBECDBFB4
:10091000DF91CF911F910F9108953FB7F894809187
:10092000870190918801A0918901B0918A0126B533
:10093000A89B05C02F3F19F00196A11DB11D3FBF17
:10094000BA2FA92F982F8827820F911DA11DB11DA5
:10095000BC01CD0142E0660F771F881F991F4A95A1
:10096000D1F708958F929F92AF92BF92CF92DF926C
:10097000EF92FF926B017C010E948D044B015C01A0
:10098000C114D104E104F104F1F00E948D04DC01F2
:10099000CB0188199909AA09BB09883E9340A10592
:1009A000B10570F321E0C21AD108E108F10888EE20
:1009B000880E83E0981EA11CB11CC114D104E1046F
:1009C000F10419F7DDCFFF90EF90DF90CF90BF904B
:1009D000AF909F908F900895CF92DF92EF92FF9209
:1009E0000F931F93CF93DF936C017A018B01C0E0CB
:1009F000D0E0CE15DF0589F0D8016D918D01D601CB
:100A0000ED91FC910190F081E02DC6010995892BB3
:100A100011F47E0102C02196ECCFC701DF91CF9186
:100A20001F910F91FF90EF90DF90CF900895FC0100
:100A3000918D828D981761F0828DDF01A80FB11D15
:100A40005D968C91928D9F5F9F73928F90E0089539
:100A50008FEF9FEF0895FC01918D828D981731F0F3
:100A6000828DE80FF11D858D90E008958FEF9FEF47
:100A70000895FC01918D228D892F90E0805C9F4F1D
:100A8000821B91098F73992708958BE891E00E944A
:100A9000390521E0892B09F420E0822F0895FC011B
:100AA000848DDF01A80FB11DA35ABF4F2C91848DF7
:100AB00090E001968F739927848FA689B7892C932C
:100AC000A089B1898C9180648C93938D848D9813C7
:100AD00006C00288F389E02D80818F7D8083089590
:100AE000EF92FF920F931F93CF93DF93EC0181E07E
:100AF000888F9B8D8C8D981305C0E889F98980813A
:100B000085FD24C0F62E0B8D10E00F5F1F4F0F7375
:100B10001127E02E8C8DE8120CC00FB607FCFACF1F
:100B2000E889F989808185FFF5CFCE010E944F05C4
:100B3000F1CF8B8DFE01E80FF11DE35AFF4FF082DC
:100B40000B8FEA89FB898081806207C0EE89FF896B
:100B50006083E889F98980818064808381E090E006
:100B6000DF91CF911F910F91FF90EF900895CF9358
:100B7000DF93EC01888D8823C9F0EA89FB898081A5
:100B800085FD05C0A889B9898C9186FD0FC00FB677
:100B900007FCF5CF808185FFF2CFA889B9898C91B8
:100BA00085FFEDCFCE010E944F05E7CFDF91CF91BA
:100BB000089580E090E0892B29F00E94450581117D
:100BC0000C94000008950E94840C6115710579F061
:100BD000FB0101900020E9F73197AF01461B570B4D
:100BE000DC01ED91FC910280F381E02D099480E01D
:100BF00090E008958F929F92AF92BF920F931F93B0
:100C0000CF93DF93CDB7DEB7A1970FB6F894DEBFD1
:100C10000FBECDBF19A2423008F44AE08E010F5D2D
:100C20001F4F842E912CA12CB12CA50194010E9460
:100C30007E0AE62FB901CA0101501109EA3014F405
:100C4000E05D01C0E95CD801EC93232B242B252B1C
:100C500061F7B80188E292E00E94E505A1960FB61F
:100C6000F894DEBF0FBECDBFDF91CF911F910F91E2
:100C7000BF90AF909F908F9008951F920F920FB6E4
:100C80000F9211242F933F938F939F93AF93BF9312
:100C90008091830190918401A0918501B09186019A
:100CA0003091820123E0230F2D3720F40196A11DFE
:100CB000B11D05C026E8230F0296A11DB11D20938A
:100CC00082018093830190938401A0938501B09366
:100CD00086018091870190918801A0918901B0914E
:100CE0008A010196A11DB11D80938701909388010F
:100CF000A0938901B0938A01BF91AF919F918F9189
:100D00003F912F910F900FBE0F901F9018951F923B
:100D10000F920FB60F9211242F933F934F935F932F
:100D20006F937F938F939F93AF93BF93EF93FF93B3
:100D30008BE891E00E944F05FF91EF91BF91AF9139
:100D40009F918F917F916F915F914F913F912F91E3
:100D50000F900FBE0F901F9018951F920F920FB615
:100D60000F9211242F938F939F93EF93FF93E09112
:100D70009B01F0919C018081E091A101F091A20181
:100D800082FD12C090818091A4018F5F8F732091AA
:100D9000A501821751F0E091A401F0E0E557FE4F64
:100DA000958F8093A40101C08081FF91EF919F9165
:100DB0008F912F910F900FBE0F901F90189510924A
:100DC0008E0110928D0188EE93E0A0E0B0E0809358
:100DD0008F0190939001A0939101B093920182E1D1
:100DE00091E090938C0180938B0185EC90E090933F
:100DF00098018093970184EC90E090939A018093FE
:100E0000990180EC90E090939C0180939B0181EC90
:100E100090E090939E0180939D0182EC90E09093EE
:100E2000A00180939F0186EC90E09093A2018093B3
:100E3000A1011092A4011092A5011092A601109296
:100E4000A70160E082E00E946401E0EBF1E0E49140
:100E5000E0935302ECE9F1E0E491F0E0EE0FFF1FC4
:100E6000E057FE4F859194919093550280935402E0
:100E700010925E021092600210925F02EEE5F2E0C4
:100E8000129282E0E635F807D9F78CE091E0909372
:100E900052028093510283E592E090934602809340
:100EA0004502109244021092400289E08093410270
:100EB00081E0809342028093430210922B021092B1
:100EC0002A0282E291E090932902809328028CE02A
:100ED00080932C028FEF80932D028DE080932E0261
:100EE00084E080932F0285E08093300286E0809337
:100EF000310287E080933202109233021092340262
:100F000010923502109236021092370261E088E2A8
:100F100092E00C943F02CF93DF93CDB7DEB72A97D0
:100F20000FB6F894DEBF0FBECDBF789484B5826053
:100F300084BD84B5816084BD85B5826085BD85B57D
:100F4000816085BD80916E00816080936E001092FB
:100F50008100809181008260809381008091810076
:100F60008160809381008091800081608093800007
:100F70008091B10084608093B1008091B000816065
:100F80008093B00080917A00846080937A00809191
:100F90007A00826080937A0080917A0081608093E9
:100FA0007A0080917A00806880937A001092C10064
:100FB000E0919B01F0919C0182E08083E091970198
:100FC000F09198011082E0919901F0919A018FECD3
:100FD00080831092A301E0919F01F091A00186E02F
:100FE0008083E0919D01F0919E01808180618083EA
:100FF000E0919D01F0919E01808188608083E09165
:101000009D01F0919E01808180688083E0919D0127
:10101000F0919E0180818F7D808362E088E292E082
:101020000E943F0266E271E088E292E00E94E505DC
:1010300080E00E94E20266E271E088E292E00E94B3
:10104000E50568EE73E080E090E00E94B20461E0A4
:1010500088E292E00E943C028BE39FE10197F1F766
:1010600061E371E088E292E00E94E50586E00E947B
:10107000E2028FED0E940D0162E471E088E292E0ED
:101080000E94E50580E00E94E20264E471E088E2EB
:1010900092E00E94E50568E471E08BE891E00E942F
:1010A000E50563E771E08BE891E00E94E505E091DA
:1010B0004502F0914602138615861486DF011B96C1
:1010C00033961E92AE17BF07E1F710924402CC246C
:1010D000C394992493945E0149E0A40EB11C00913D
:1010E000450210914602F801858581115DC0C80155
:1010F0000E94C303882309F457C040E060EFC80191
:101100000E945403EE24E394D12C812CFF24F39409
:10111000C8010E940103682FC8016A870E94010369
:101120006A85613019F48130C1F435C02D2D30E06D
:1011300068131CC0F8018385F81630F4E20FF31F22
:1011400083818E2151F402C0F81639F060E0F8E096
:10115000FF1558F0F801F48608C0F801ED0DF11DF7
:1011600083818E29838361E009C08F2CF801E20F0F
:10117000F31F93818E2D809589238383C8010E945C
:101180002503F394EE0C19F4D394EE24E394F7E0E2
:10119000FD1508F0BDCF40E44F1530F4F80183860B
:1011A00081103CC1C5863AC1F801138615861486A4
:1011B00080914502909146020E94C30340E06CEC8E
:1011C00080914502909146020E9454034091400252
:1011D00064E480914502909146020E9454038091FC
:1011E00042028823A9F0E0914102E950E33040F443
:1011F000F0E0EE0FFF1FE85FFE4F6081718102C0DB
:101200006EEE72E0072E000C880B990B0E94B20460
:1012100080E00E94E20280914502909146020E9485
:10122000C303882309F453C1BE016F5F7F4F80E081
:1012300091E00E94F903882309F449C168E0CE01D6
:1012400001960E94F4029985891341C16981F8E0F1
:101250006F9FB00111248A81282F30E0322F22277E
:10126000330F330F330F262B372B80910001803142
:10127000C9F4688570E08F81AB01481B5109CA0130
:101280009695982F8827979587950E946A0A6051AE
:101290007109207F53E0220F331F5A95E1F7620F47
:1012A000731F01C0B901613854EE7507BCF0072EF9
:1012B000000C880B990B0E945D0B20E030E040E0B1
:1012C0005CE30E94120C6B017C019B01AC010E944B
:1012D0007F0C882349F066E771E020C0C12CD12C37
:1012E0008EEFE82E82ECF82E46015701E894B7F80D
:1012F0002FEF3FEF4FE75FE7C501B4010E947F0C7E
:10130000811111C02FEF3FEF4FE75FE7C501B40137
:101310000E94270B18163CF46AE771E088E292E01D
:101320000E94E50572C02FEF3FEF4FE75FE4C70172
:10133000B6010E940D0C18161CF46EE771E0EECF9A
:101340002FEF3FEF4FE75FECC701B6010E94270B7D
:1013500087FDF3CF20E030E0A901C701B6010E946C
:10136000270B87FF07C08DE20E940D01F7FAF0946A
:10137000F7F8F0942AE037ED43EA5BE3C701B601E2
:101380000E94BB0A4B015C010E942C0B6B017C018B
:101390000E945B0B9B01AC01C501B4010E94BA0A1B
:1013A0004B015C014AE0C701B6010E94FA058EE2DA
:1013B0000E940D0120E030E040E251E4C501B4019B
:1013C0000E94120C4B015C010E942C0B6B01E12C62
:1013D000F12C4AE0C701B6010E94FA05C701B60127
:1013E0000E945B0B9B01AC01C501B4010E94BA0ACB
:1013F00020E030E040E251E40E94120C0E942C0BED
:1014000080E090E04AE00E94FA0568EE73E080E038
:1014100090E00E94B2040E94D905CACEF8018381EF
:10142000882309F4C1CE3396DE01119681918D9304
:10143000AA15BB05D9F767E0CE0101960E94F40218
:10144000988589134CCE80914002811126C08091ED
:101450004502909146020E94C303BE016F5F7F4F19
:1014600080914502909146020E94960340E064EB11
:1014700080914502909146020E945403809145025A
:10148000909146020E940103182F8091450290918D
:1014900046020E94C3031123B9F010914102CE010C
:1014A00001960E944504811718F48091410204C0FE
:1014B000CE0101960E94450480934102809144022E
:1014C0008F5F809344020BCE90924002E6CF60E89B
:1014D00074EEE9CE97FB072E16F4009407D077FD43
:1014E00009D00E94A00A07FC05D03EF49095819592
:1014F0009F4F0895709561957F4F0895A1E21A2E30
:10150000AA1BBB1BFD010DC0AA1FBB1FEE1FFF1FA7
:10151000A217B307E407F50720F0A21BB30BE40BF7
:10152000F50B661F771F881F991F1A9469F760953E
:101530007095809590959B01AC01BD01CF010895F8
:10154000AA1BBB1B51E107C0AA1FBB1FA617B707E9
:1015500010F0A61BB70B881F991F5A95A9F7809505
:101560009095BC01CD010895EE0FFF1F0590F491F9
:10157000E02D09945058BB27AA270E94D20A0C9448
:10158000D30B0E94C50B38F00E94CC0B20F039F42D
:101590009F3F19F426F40C94C20B0EF4E095E7FB80
:1015A0000C94BC0BE92F0E94E40B58F3BA176207A6
:1015B00073078407950720F079F4A6F50C94060CC0
:1015C0000EF4E0950B2EBA2FA02D0B01B90190015E
:1015D0000C01CA01A0011124FF27591B99F0593FA2
:1015E00050F4503E68F11A16F040A22F232F342FEA
:1015F0004427585FF3CF469537952795A795F04038
:101600005395C9F77EF41F16BA0B620B730B840B4C
:10161000BAF09150A1F0FF0FBB1F661F771F881F04
:10162000C2F70EC0BA0F621F731F841F48F487955C
:1016300077956795B795F7959E3F08F0B0CF93954E
:10164000880F08F09927EE0F9795879508950E94C7
:10165000980B08F481E008950E94EC0B88F09F57E6
:1016600098F0B92F9927B751B0F0E1F0660F771FC6
:10167000881F991F1AF0BA95C9F714C0B13091F0BC
:101680000E94060CB1E008950C94060C672F782F89
:101690008827B85F39F0B93FCCF386957795679581
:1016A000B395D9F73EF490958095709561957F4FED
:1016B0008F4F9F4F0895E89409C097FB3EF4909593
:1016C0008095709561957F4F8F4F9F4F9923A9F01B
:1016D000F92F96E9BB279395F695879577956795AA
:1016E000B795F111F8CFFAF4BB0F11F460FF1BC0EE
:1016F0006F5F7F4F8F4F9F4F16C0882311F096E981
:1017000011C0772321F09EE8872F762F05C066232E
:1017100071F096E8862F70E060E02AF09A95660FE7
:10172000771F881FDAF7880F9695879597F90895A0
:10173000990F0008550FAA0BE0E8FEEF16161706E2
:10174000E807F907C0F012161306E407F50798F04A
:10175000621B730B840B950B39F40A2661F0232B63
:10176000242B252B21F408950A2609F4A140A695DF
:101770008FEF811D811D089597F99F6780E870E0C4
:1017800060E008959FEF80EC089500240A941616F7
:10179000170618060906089500240A94121613065F
:1017A000140605060895092E0394000C11F48823ED
:1017B00052F0BB0F40F4BF2B11F460FF04C06F5F09
:1017C0007F4F8F4F9F4F089557FD9058440F551FDF
:1017D00059F05F3F71F04795880F97FB991F61F0B3
:1017E0009F3F79F087950895121613061406551F2A
:1017F000F2CF4695F1DF08C0161617061806991F96
:10180000F1CF86957105610508940895E894BB278A
:1018100066277727CB0197F908950E94980B08F463
:101820008FEF08950E94250C0C94D30B0E94C50BDA
:1018300038F00E94CC0B20F0952311F00C94BC0BD7
:101840000C94C20B11240C94070C0E94E40B70F34F
:10185000959FC1F3950F50E0551F629FF001729F55
:10186000BB27F00DB11D639FAA27F00DB11DAA1F64
:10187000649F6627B00DA11D661F829F2227B00DB1
:10188000A11D621F739FB00DA11D621F839FA00D3C
:10189000611D221F749F3327A00D611D231F849F8C
:1018A000600D211D822F762F6A2F11249F575040E3
:1018B0009AF0F1F088234AF0EE0FFF1FBB1F661F5E
:1018C000771F881F91505040A9F79E3F510580F027
:1018D0000C94BC0B0C94070C5F3FE4F3983ED4F3DC
:1018E000869577956795B795F795E7959F5FC1F7CB
:1018F000FE2B880F911D9695879597F908950E9464
:10190000980B880B990B089581E090E0F8940C9463
:06191000890CF894FFCFE2
:1019160028FF63C2851604595E00BC0077010000EB
:1019260000007005EC04390517052B05B705000006
:1019360000003602EC0453656E64204E75646573D0
:101946000054656D70657261747572652069733ACD
:10195600200043002020200044616C6C61732054F9
:10196600656D706572617475726520494320436FB9
:101976006E74726F6C204C69627261727920446574
:101986006D6F000D0A006E616E00696E66006F76FF
:021996006600E9
:00000001FF
